:0F091B000A09C0F9A4B0999282F88090010803EC
:10088C00E4F513FF7580FF74092513F8E6F5801263
:10089C0008D8EFFD7C00640170190513E513FB33D8
:1008AC0095E0FAD3EB9409EA6480948040D9E4F59E
:1008BC001380D4ED64024C70CE1513E5133395E020
:0C08CC00C36480948050C075130980BB89
:1008FB00E4FDFCC3ED9FEC9E5015E4FBFA0BBB0033
:0F090B00010AEB647D4A70F50DBD00010C80E41C
:01091A0022BA
:1008D800E4FFE5B013135403FE65086015EEFD7CD4
:1008E80000640270030F8008ED64014C70027F02FF
:0208F8008E0868
:0108FA0022DB
:03000000020800F3
:0C080000787FE4F6D8FD758113020847EC
:10080C0002088CE493A3F8E493A34003F68001F26E
:10081C0008DFF48029E493A3F85407240CC8C333ED
:10082C00C4540F4420C8834004F456800146F6DFBC
:10083C00E4800B010204081020408090091BE47E28
:10084C00019360BCA3FF543F30E509541FFEE493B1
:10085C00A360010ECF54C025E060A840B8E493A378
:10086C00FAE493A3F8E493A3C8C582C8CAC583CAA3
:10087C00F0A3C8C582C8CAC583CADFE9DEE780BE5B
:01092A0000CC
:00000001FF
